:020000040800F2
:10000000000004202DB200087DB200087DB2000877
:100010007DB200087DB200087DB20008000000003B
:100020000000000000000000000000007DB2000899
:100030007DB20008000000007DB200087DB200081B
:100040007DB200087DB200087DB200087DB20008D4
:100050007DB200087DB200087DB200087DB20008C4
:10006000CD5B00087DB200087DB200087DB20008BB
:100070007DB200087DB200087DB200087DB20008A4
:100080007DB200087DB200087DB200087DB2000894
:100090007DB200087DB200087DB20008555C000802
:1000A0007DB200087DB200087DB200087DB2000874
:1000B0007DB20008B95300083D5E00087DB200081B
:1000C0007DB200087DB200087DB200087DB2000854
:1000D0007DB200087DB200087DB200087DB2000844
:1000E000895D00087DB200087DB200087DB200087D
:1000F0007DB200087DB200087DB200087DB2000824
:100100007DB200087DB200087DB200087DB2000813
:10011000695E00087DB200087DB200087DB200086B
:100120007DB200087DB200087DB200087DB20008F3
:100130007DB2000800000000000000000000000088
:100140000000000000000000000000007DB2000878
:100150007DB200087DB200087DB200087DB20008C3
:100160007DB200087DB200087DB200087DB20008B3
:100170007DB200087DB20008000000000000000011
:100180007DB200087DB200087DB200087DB2000893
:100190007DB200087DB20008000000007DB20008BA
:1001A0000000000000000000000000007DB2000818
:1001B0007DB200087DB200080000000000000000D1
:1001C000000000000000000000000000000000002F
:1001D0000000000000000000000000007DB20008E8
:1001E00010B5054C237833B9044B13B10448AFF371
:1001F00000800123237010BDB80201200000000020
:10020000B8EB020808B5034B1BB103490348AFF331
:10021000008008BD00000000BC020120B8EB02080D
:1002200001F0FF01102A2BDB10F0070F08D010F8A7
:10023000013B013A8B422DD010F0070F42B3F6D1AB
:10024000F0B441EA012141EA014122F007047FF0C4
:1002500000070023F0E80256083C85EA010586EA1B
:10026000010685FA47F5A3FA87F586FA47F6A5FA57
:1002700087F68EB9EED1F0BC01F0FF0102F0070263
:1002800032B110F8013B013A83EA010313B1F8D10E
:100290000020704701387047002D06BF35460338EF
:1002A000073815F0010F07D1013015F4807F02BF28
:1002B000013015F4C03F0130F0BC0138704700BF79
:1002C00010F8012B11F8013B012A28BF9A42F7D000
:1002D000D01A7047034613F8012B002AFBD1181AD5
:1002E0000138704781F0004102E000BF83F0004315
:1002F00030B54FEA41044FEA430594EA050F08BFC1
:1003000090EA020F1FBF54EA000C55EA020C7FEA84
:10031000645C7FEA655C00F0E2804FEA5454D4EB01
:100320005555B8BF6D420CDD2C4480EA020281EACB
:10033000030382EA000083EA010180EA020281EA03
:100340000303362D88BF30BD11F0004F4FEA013155
:100350004FF4801C4CEA113102D0404261EB410164
:1003600013F0004F4FEA03334CEA133302D05242EA
:1003700063EB430394EA050F00F0A780A4F10104A6
:10038000D5F1200E0DDB02FA0EFC22FA05F28018E0
:1003900041F1000103FA0EF2801843FA05F35941C6
:1003A0000EE0A5F120050EF1200E012A03FA0EFC45
:1003B00028BF4CF0020C43FA05F3C01851EBE3716F
:1003C00001F0004507D54FF0000EDCF1000C7EEB8C
:1003D00000006EEB0101B1F5801F1BD3B1F5001FCA
:1003E0000CD349085FEA30004FEA3C0C04F10104E9
:1003F0004FEA445212F5800F80F09A80BCF1004F12
:1004000008BF5FEA500C50F1000041EB045141EA93
:10041000050130BD5FEA4C0C404141EB010111F494
:10042000801FA4F10104E9D191F0000F04BF01463F
:100430000020B1FA81F308BF2033A3F10B03B3F11D
:1004400020020CDA0C3208DD02F1140CC2F10C02AD
:1004500001FA0CF021FA02F10CE002F11402D8BF0B
:10046000C2F1200C01FA02F120FA0CFCDCBF41EAD7
:100470000C019040E41AA2BF01EB0451294330BDA6
:100480006FEA04041F3C1CDA0C340EDC04F1140483
:10049000C4F1200220FA04F001FA02F340EA03005A
:1004A00021FA04F345EA030130BDC4F10C04C4F1A0
:1004B000200220FA02F001FA04F340EA0300294680
:1004C00030BD21FA04F0294630BD94F0000F83F4CA
:1004D000801306BF81F480110134013D4EE77FEAAD
:1004E000645C18BF7FEA655C29D094EA050F08BFF9
:1004F00090EA020F05D054EA000C04BF19461046DA
:1005000030BD91EA030F1EBF0021002030BD5FEA1D
:10051000545C05D14000494128BF41F0004130BD45
:1005200014F580043CBF01F5801130BD01F0004599
:1005300045F0FE4141F470014FF0000030BD7FEA0C
:10054000645C1ABF194610467FEA655C1CBF0B4607
:10055000024650EA013406BF52EA033591EA030F1E
:1005600041F4002130BD00BF90F0000F04BF002116
:10057000704730B54FF4806404F132044FF0000549
:100580004FF0000150E700BF90F0000F04BF0021C2
:10059000704730B54FF4806404F1320410F0004528
:1005A00048BF40424FF000013EE700BF42004FEA23
:1005B000E2014FEA31014FEA02701FBF12F07F43A0
:1005C00093F07F4F81F06051704792F0000F14BF9D
:1005D00093F07F4F704730B54FF4607401F00045E1
:1005E00021F0004120E700BF50EA010208BF704738
:1005F00030B54FF000050AE050EA010208BF70472D
:1006000030B511F0004502D5404261EB41014FF495
:10061000806404F132045FEA915C3FF4DCAE4FF099
:1006200003025FEADC0C18BF03325FEADC0C18BF80
:10063000033202EBDC02C2F1200300FA03FC20FAD1
:1006400002F001FA03FE40EA0E0021FA02F114441E
:10065000C1E600BF70B54FF0FF0C4CF4E06C1CEA33
:1006600011541DBF1CEA135594EA0C0F95EA0C0FA8
:1006700000F0DEF82C4481EA030621EA4C5123EA1B
:100680004C5350EA013518BF52EA033541F480114A
:1006900043F4801338D0A0FB02CE4FF00005E1FBFD
:1006A00002E506F00042E0FB03E54FF00006E1FB47
:1006B00003569CF0000F18BF4EF0010EA4F1FF048A
:1006C000B6F5007F64F5407404D25FEA4E0E6D41CA
:1006D00046EB060642EAC62141EA55514FEAC520DB
:1006E00040EA5E504FEACE2EB4F1FD0C88BFBCF557
:1006F000E06F1ED8BEF1004F08BF5FEA500E50F108
:10070000000041EB045170BD06F0004646EA0101CD
:1007100040EA020081EA0301B4EB5C04C2BFD4EBFF
:100720000C0541EA045170BD41F480114FF0000EF8
:10073000013C00F3AB8014F1360FDEBF002001F066
:10074000004170BDC4F10004203C35DA0C341BDCE0
:1007500004F11404C4F1200500FA05F320FA04F0B2
:1007600001FA05F240EA020001F0004221F00041E6
:1007700010EBD37021FA04F642EB06015EEA430E59
:1007800008BF20EAD37070BDC4F10C04C4F1200589
:1007900000FA04F320FA05F001FA04F240EA02003C
:1007A00001F0004110EBD37041F100015EEA430E0D
:1007B00008BF20EAD37070BDC4F1200500FA05F22D
:1007C0004EEA020E20FA04F301FA05F243EA0203AC
:1007D00021FA04F001F0004121FA04F220EA0200BB
:1007E00000EBD3705EEA430E08BF20EAD37070BD01
:1007F00094F0000F0FD101F00046400041EB0101E1
:1008000011F4801F08BF013CF7D041EA060195F0C2
:10081000000F18BF704703F00046520043EB03037C
:1008200013F4801F08BF013DF7D043EA0603704769
:1008300094EA0C0F0CEA135518BF95EA0C0F0CD074
:1008400050EA410618BF52EA4306D1D181EA0301BA
:1008500001F000414FF0000070BD50EA410606BFB4
:100860001046194652EA430619D094EA0C0F02D1F9
:1008700050EA013613D195EA0C0F05D152EA03363E
:100880001CBF104619460AD181EA030101F000415C
:1008900041F0FE4141F470014FF0000070BD41F0A5
:1008A000FE4141F4780170BD70B54FF0FF0C4CF47F
:1008B000E06C1CEA11541DBF1CEA135594EA0C0F9E
:1008C00095EA0C0F00F0A7F8A4EB050481EA030EEB
:1008D00052EA03354FEA013100F088804FEA0333D2
:1008E0004FF0805545EA131343EA12634FEA0222A0
:1008F00045EA111545EA10654FEA00260EF0004161
:100900009D4208BF964244F1FD0404F5407402D2B2
:100910005B084FEA3202B61A65EB03055B084FEA43
:1009200032024FF480104FF4002CB6EB020E75EB40
:10093000030E22BFB61A754640EA0C005B084FEA68
:100940003202B6EB020E75EB030E22BFB61A7546E5
:1009500040EA5C005B084FEA3202B6EB020E75EB30
:10096000030E22BFB61A754640EA9C005B084FEAA8
:100970003202B6EB020E75EB030E22BFB61A7546B5
:1009800040EADC0055EA060E18D04FEA051545EAA4
:1009900016754FEA06164FEAC30343EA52734FEA4D
:1009A000C2025FEA1C1CC0D111F4801F0BD141EAC6
:1009B00000014FF000004FF0004CB6E711F4801F2B
:1009C00004BF01430020B4F1FD0C88BFBCF5E06F0B
:1009D0003FF6AFAEB5EB030C04BFB6EB020C5FEA1B
:1009E000500C50F1000041EB045170BD0EF0004E70
:1009F0004EEA113114EB5C04C2BFD4EB0C0541EAA2
:100A0000045170BD41F480114FF0000E013C90E69E
:100A100045EA060E8DE60CEA135594EA0C0F08BF62
:100A200095EA0C0F3FF43BAF94EA0C0F0AD150EA61
:100A300001347FF434AF95EA0C0F7FF425AF1046F4
:100A400019462CE795EA0C0F06D152EA03353FF41C
:100A5000FDAE1046194622E750EA410618BF52EA99
:100A600043067FF4C5AE50EA41047FF40DAF52EA6D
:100A700043057FF4EBAE12E74FF0FF3C06E000BF0A
:100A80004FF0010C02E000BF4FF0010C4DF804CD17
:100A90004FEA410C7FEA6C5C4FEA430C18BF7FEAD7
:100AA0006C5C1BD001B050EA410C0CBF52EA430C05
:100AB00091EA030F02BF90EA020F0020704710F185
:100AC000000F91EA030F58BF994208BF90422CBF14
:100AD000D8176FEAE37040F0010070474FEA410C0D
:100AE0007FEA6C5C02D150EA013C07D14FEA430C2B
:100AF0007FEA6C5CD6D152EA033CD3D05DF8040B9C
:100B0000704700BF8446104662468C4619466346CD
:100B100000E000BF01B5FFF7B7FF002848BF10F1A4
:100B2000000F01BD4DF808EDFFF7F4FF0CBF0120E9
:100B300000205DF808FB00BF4DF808EDFFF7EAFF65
:100B400034BF012000205DF808FB00BF4DF808ED20
:100B5000FFF7E0FF94BF012000205DF808FB00BF15
:100B60004DF808EDFFF7CEFF94BF012000205DF89F
:100B700008FB00BF4DF808EDFFF7C4FF34BF0120AC
:100B800000205DF808FB00BF4FEA410C7FEA6C5C77
:100B900002D150EA013C0AD14FEA430C7FEA6C5C77
:100BA00002D152EA033C02D14FF0000070474FF0EF
:100BB000010070474FEA410212F5001215D211D51B
:100BC0006FF47873B3EB625212D94FEAC12343F04A
:100BD000004343EA505311F0004F23FA02F018BFCC
:100BE000404270474FF00000704750EA013005D195
:100BF00011F0004008BF6FF0004070474FF0000058
:100C0000704700BF4A0011D212F5001211D20DD563
:100C10006FF47873B3EB62520ED44FEAC12343F002
:100C2000004343EA505323FA02F070474FF00000AC
:100C3000704750EA013002D14FF0FF3070474FF05B
:100C4000000070474FEA4102B2F1E04324BFB3F520
:100C5000001CDCF1FE5C0DD901F0004C4FEAC00233
:100C60004CEA5070B2F1004F40EB830008BF20F017
:100C70000100704711F0804F21D113F13872BCBFD1
:100C800001F00040704741F480114FEA5252C2F126
:100C90001802C2F1200C10FA0CF320FA02F018BF6F
:100CA00040F001004FEAC1234FEAD32303FA0CFCC2
:100CB00040EA0C0023FA02F34FEA4303CCE77FEA51
:100CC000625307D150EA01331EBF4FF0FE4040F49B
:100CD0004000704701F0004040F0FE4040F400004A
:100CE000704700BF53B94AB9002908BF00281CBF8C
:100CF0004FF0FF314FF0FF3000F07AB9ADF1080C42
:100D00006DE904CE00F006F8DDF804E0DDE9022329
:100D100004B070472DE9F0478C460D460446089E06
:100D2000002B51D18A4217466DD9B2FA82FEBEF12C
:100D3000000F0BD0CEF1200C01FA0EF520FA0CFCBE
:100D400002FA0EF74CEA050C00FA0EF44FEA174AC5
:100D5000250CBCFBFAF81FFA87F90AFB18CC45EA08
:100D60000C4508FB09F3AB420AD9ED1908F1FF3233
:100D700080F02381AB4240F22081A8F102083D447B
:100D8000ED1AA4B2B5FBFAF00AFB105544EA05448B
:100D900000FB09F9A14509D9E41900F1FF3380F0FE
:100DA0000A81A14540F2078102383C44A4EB0904C2
:100DB00040EA08400021002E61D024FA0EF40023FE
:100DC00034607360BDE8F0878B4207D9002E54D0A1
:100DD000002186E821000846BDE8F087B3FA83F1D8
:100DE000002940F08E80AB4202D3824200F2FA80AA
:100DF000841A65EB03050120AC46002E3FD086E83F
:100E00001010BDE8F08712B90127B7FBF2F7B7FA67
:100E100087FEBEF1000F34D1EB1B3A0C1FFA87FCA2
:100E20000121B3FBF2F8250C02FB183345EA034518
:100E30000CFB08F3AB4207D9ED1908F1FF3002D2E1
:100E4000AB4200F2D1808046ED1AA3B2B5FBF2F0BE
:100E500002FB105543EA05440CFB00FCA44507D9EE
:100E6000E41900F1FF3302D2A44500F2B88018461D
:100E7000A4EB0C0440EA08409DE731463046BDE84B
:100E8000F087CEF1200405FA0EF307FA0EF720FAE8
:100E900004F83A0C25FA04F448EA0308B4FBF2F12A
:100EA0004FEA184502FB11441FFA87FC45EA044546
:100EB00001FB0CF3AB4200FA0EF409D9ED1901F174
:100EC000FF3080F08A80AB4240F2878002393D4497
:100ED000EB1A1FFA88F5B3FBF2F002FB103345EA78
:100EE000034500FB0CF3AB4207D9ED1900F1FF38C5
:100EF0006FD2AB426DD902383D44EB1A40EA014152
:100F00008FE7C1F1200722FA07F88B4005FA01F4B8
:100F100048EA030320FA07FE4FEA134CFD404EEA6D
:100F2000040EB5FBFCF94FEA1E440CFB19551FFAE1
:100F300083F844EA054509FB08F4AC4202FA01F2E1
:100F400000FA01FA08D9ED1809F1FF3043D2AC429A
:100F500041D9A9F102091D442D1B1FFA8EFEB5FBD4
:100F6000FCF00CFB10554EEA054400FB08F8A045C8
:100F700007D9E41800F1FF3529D2A04527D9023856
:100F80001C4440EA0940A4EB0804A0FB02894C453C
:100F9000C6464D4615D312D056B1BAEB0E0364EBDC
:100FA000050404FA07F7CB401F43CC403760746058
:100FB0000021BDE8F0871846F8E69046E0E6C24515
:100FC000EAD2B8EB020E69EB03050138E4E72846E4
:100FD000D7E7404691E78146BEE7014678E7023809
:100FE0003C4445E7084608E7A8F102083D442BE7E2
:100FF000704700BF80B582B000AF87ED010AC7ED32
:10100000000AD7ED000A97ED010A0BF043FDF0EE60
:10101000407AB0EE670A0837BD4680BD80B483B021
:1010200000AF87ED010AD7ED017AF8FE677AB0EEDE
:10103000670A0C37BD465DF8047B704780B584B005
:1010400000AFF860B9607A607B68002B01D10023A3
:1010500005E07A68B968F86827F092F903461846FF
:101060001037BD4680BD000090B585B000AF7860F8
:101070007B6803F500534FF480621A807A6842F26D
:101080000203134401221A707A6842F20E031344D9
:1010900000221A707A6842F20F03134400221A7079
:1010A0007A6842F21003134400221A707A6843F2FD
:1010B0001403134408221A707A6843F21503134488
:1010C00007221A707A6844F220031344184611F07C
:1010D00037FC7A6844F23803134400221A607A68B5
:1010E00044F23C03134400221A807A6844F23E031F
:1010F000134439491A460B4603CB106051601B88D4
:1011000013817A6845F64823134400221A7000239D
:10111000FB60FB68B3F5806F35DAFB6807EE903A49
:10112000F8EEE77A77EEA77A17EE900AFFF73EFA25
:1011300027A3D3E90023FFF78DFA03460C46184690
:1011400021464FF00002254BFFF7AEFB03460C464D
:1011500044EC173BB0EE470AF0EE670A24F008FCB7
:1011600054EC103B18462146FFF76CFD01467A68A7
:10117000FB6803F604039B00134404331960FB6807
:101180000133FB60C5E700237B817B89192B17DCCA
:1011900000233B813B89FF2B0EDC7A893B897968F0
:1011A00012020A441A4444F24803134450221A70AB
:1011B0003B8901333B81EDE77B8901337B81E4E7A8
:1011C0007B6818461437BD4690BD00BFAFF3008062
:1011D000182D4454FB210940D0EB02080000904038
:1011E00080B582B000AF78603960144A134B1B6839
:1011F00023F001031360124B1B681A040F4B5B6A48
:101200001344104A13600D4A0C4B5B6943F0010311
:1012100053610A4A094B1B6843F001031360084BF2
:1012200000221A603968786800F0F6FA3968786840
:1012300000F0FEFC00BF0837BD4680BD000800403E
:10124000001201200412012080B582B000AF786046
:101250003960144A134B1B6823F001031360124BCF
:101260001B681A040F4B5B6A1344104A13600D4A43
:101270000C4B5B6943F0010353610A4A094B1B683D
:1012800043F001031360084B00221A603968786844
:1012900000F0C2FA3968786800F00AF800BF083731
:1012A000BD4680BD0008004000120120041201204C
:1012B00090B597B002AFF860B9600023A7F84E3040
:1012C0000023A7F848300023A7F846300123A7F8E9
:1012D0004430B7F84430FF2B00F32281B7F84620A2
:1012E000B7F8443004339A427CDAB7F84630FF2B23
:1012F00078DCB7F846309B00BA681344D3ED007A27
:10130000B7F84630FA6803F606439B00134493EDA2
:10131000007AF0EE470AB0EE670AFFF76BFEF0EED8
:10132000406A9FED7B7AC6EE877AB7EE007A77EE59
:10133000677A9FED787A67EE877AFCEEE77AC7EDF9
:10134000017ABB88A7F84C30B7F84C301D2B1BDC5A
:10135000B7F84E300133A7F84E30B7F84E30C82BEF
:1013600012DD6D4B1B889BB201339AB26A4B1A8017
:101370006A4B1B78DBB21A46FB681A4442F20E0332
:10138000134400221A7020E2FA6845F648231344F9
:101390001B781A46B7F84630B7F84C10C8B2F9684F
:1013A00012020A441A4444F24803134402461A70D3
:1013B000B7F84630012B0FD1FA6845F6482313449D
:1013C0001B78B7F84C20D1B2FA681B021A4444F2D9
:1013D000480313440A461A70B7F846300133A7F899
:1013E00046307BE70023A7F84A30B7F84A30A7F821
:1013F0004C30B7F84430043B9BB2A7F84230B7F901
:101400004220B7F8443004339A423DDCB7F9423009
:10141000002B31DBB7F94230FF2B2DDCB7F844202D
:10142000B7F94230D31A002BB8BF5B42C3F10403B3
:10143000012202FA03F37B87B7F84A207B8F13441B
:10144000A7F84A30FA6845F6482313441B781A4631
:10145000B7F94230F96812020A441A4444F24803C8
:1014600013441B789BB27A8F12FB03F39AB2B7F83E
:101470004C301344A7F84C30B7F942309BB20133DB
:101480009BB2A7F84230BAE7B7F84C20B7F84A3019
:10149000B2FBF3F3A7F84C30B7F848305B0007F124
:1014A00050021344B7F84C2023F83C2CB7F84830CE
:1014B00001335A4203F0030302F0030258BF5342C0
:1014C000A7F84830B7F84430032B1ADDFA6845F620
:1014D000482313441B781C46B7F844301A1FB7F84A
:1014E00048305B0007F150010B4433F83C3CD8B264
:1014F000F96823020B441A4444F248031344024699
:101500001A70B7F844300133A7F84430E1E600BF61
:10151000000080470000A04226120120EE110120A9
:101520000121F86801F01CF8FA6845F648231344D5
:101530001B780133A64A82FB0312D110DA178A1AEC
:101540001A2101FB02F29A1AD1B2FA6845F6482331
:1015500013440A461A700123A7F84030B7F8403008
:10156000B3F5A07F00F33181B7F84030013B994AD1
:1015700082FB03125211DB17D31A03F00103002B75
:1015800014BF01230023DBB287F83930D723FB8750
:101590000023BB87BB8F192B00F3B780BB8F5B0089
:1015A0009BB2C3F13F039BB25B01FB86FA6845F631
:1015B000482313441B781A46BB8F1344844A82FB8A
:1015C0000312D110DA178A1A1A2101FB02F29A1AB1
:1015D0001346BB86BB8F5B0003333B63BB8FC3F1FA
:1015E0001A0213469B0013440C3BFB62B7F84020E1
:1015F0003B6B9A4240F38580B7F840203B6B03F584
:1016000080739A427DDAB7F93420B7F840103B6B0B
:10161000CB1AF96812020A441A4444F248031344EC
:101620001B789AB2FB6A9BB213449BB27B85B7F9D5
:101630003420B7F840103B6BCB1A013BF96812021B
:101640000A441A4444F2480313441B789AB2FB6AD2
:101650009BB213449BB23B85B7F93E30002B50DD63
:10166000B7F93E20B7F92A309A4205DAB7F93E2099
:10167000B7F928309A4244DBFB8F1A469200134494
:101680001B0198B2B7F840305A1E524B83FB02132D
:101690005911D317C91A0B469B000B441B01D11AD1
:1016A0008BB20344FB84B7F93E20B7F92A309A4243
:1016B00013DDB7F93E20B7F928309A420DDD97F8CF
:1016C0003910FA6841F206030B4452F82320FB8CD0
:1016D0005B00134400221A800CE097F83910FA6876
:1016E00041F206030B4452F82320FB8C5B001344A9
:1016F000FA8E1A80B7F93E309BB2013B9BB2FB8752
:10170000AAE7BB8F0133BB8744E701233B62B7F9EC
:101710003E30002B28DBFB8F1A46920013441B013E
:1017200098B2B7F840305A1E2A4B83FB0213591166
:10173000D317C91A0B469B000B441B01D11A8BB25D
:101740000344FB8397F83910FA6841F206030B440F
:1017500052F82320FB8B5B00134400221A80FB8F7E
:10176000013B9BB2FB87D2E7B7F840201A4BA3FBA3
:10177000021399090B469B000B441B01D31A9BB221
:10178000002B1CD1154B5B68154A1360B7F840302D
:10179000503B98B2B7F84030013B9CB297F83910F3
:1017A000FA6841F206030B4452F823300193D72321
:1017B00000932346002201460A4802F0FBFAB7F8DC
:1017C00040300133A7F84030C8E65437BD4690BDDD
:1017D0004FECC44E67666666CDCCCCCCA0640240AC
:1017E000FC1101204412012090B583B000AF786055
:1017F0007868FEF7C9FE03460C4644EC103B24F023
:101800006FF8B0EE407AF0EE607AB0EE470AF0EE94
:10181000670A0C37BD4690BD90B59BB000AF7860AD
:1018200039600023A7F84E307B6803F500531B880E
:101830001846FEF799FE03460C4644EC103B24F094
:101840003BF854EC103B18462146FFF7DBF9034602
:10185000A7F84C3000237B667B6803F500531B8898
:101860001A467B6E9A422BDDB7F84C30C3F120024A
:101870007B6E93FAA3F363FA02F3A7F84E30B7F83E
:101880004E207B6E9A4217DD7B6E9B003A681344B4
:101890001B68BB647B6E9B003A681344B7F84E200C
:1018A000920039680A4412681A60B7F84E309B00FB
:1018B0003A681344BA6C1A607B6E01337B66CBE7DF
:1018C00001233B667B6803F500531B881A463B6E79
:1018D0009A4240F3A4813B6E012B4AD10023FB6561
:1018E0007B6803F500531B881A46FB6D9A4240F350
:1018F0009281FA6D3B6E13447B647B6C9B003A686B
:1019000013441B683B647B6C9B003A681344FA6D7C
:10191000920039680A4492ED007AD7ED107A77EE9A
:10192000677AC3ED007A7A687B6C03F606439B0006
:1019300013444FF000021A60FB6D9B003A68134499
:10194000FA6D920039680A4492ED007AD7ED107A68
:1019500077EE277AC3ED007A7A68FB6D03F60643CB
:101960009B0013444FF000021A60FB6D0233FB65CD
:10197000B6E77B6803F500531B885B089BB21A46E9
:101980003B6E9A4240F093800123A7F85A30B7F893
:101990005A307A6802F500521288520892B2934285
:1019A00080F23981B7F85A309A023B6E5B0092FBA5
:1019B000F3F31846FFF718FF54EC103B1846214686
:1019C000FFF720F90346FB87FB8F7A6803F60403D1
:1019D0009B00134404331B68BB63FB8F03F58073C8
:1019E0007A6803F604039B00134404331B687B638B
:1019F000B7F85A203B6E13443B633B6B9B003A683D
:101A0000134493ED007AD7ED0D7A27EE277A7A68A2
:101A10003B6B03F606439B001344D3ED006AD7EDFE
:101A20000E7A66EEA77A77EE677AB7F85A309B009F
:101A30003A681344B7F85A20920039680A4492ED84
:101A4000007A77EE277AC3ED007A7A683B6B03F66B
:101A500006439B00134493ED007AD7ED0D7A27EEF1
:101A6000277A3B6B9B003A681344D3ED006AD7EDAD
:101A70000E7A66EEA77A77EE277AB7F85A30B7F87B
:101A80005A20796802F6064292000A4492ED007AE2
:101A900077EE277A7A6803F606439B001344C3ED7A
:101AA000007AB7F85A300133A7F85A306FE70023AD
:101AB0007B657A6D3B6E9A4280F2AD807B6D9A02B7
:101AC0003B6E5B0092FBF3F31846FFF78DFE54EC80
:101AD000103B18462146FFF76DF80346FB627A6813
:101AE000FB6A03F604039B00134404331B68BB62C8
:101AF000FB6A03F580737A6803F604039B001344C2
:101B000004331B687B627B6D3B657B6803F5005388
:101B10001B881A463B6D9A4279DD3A6D3B6E134441
:101B20003B623B6D9B003A6813441B68FB617A681B
:101B30003B6D03F606439B0013441B68BB613B6A85
:101B40009B003A6813441B687B617A683B6A03F622
:101B500006439B0013441B683B6197ED097AD7ED60
:101B6000057A27EE277AD7ED0A6AD7ED047A66EE72
:101B7000A77A77EE677AC7ED037A97ED097AD7ED02
:101B8000047A27EE277AD7ED0A6AD7ED057A66EE52
:101B9000A77A77EE277AC7ED027A3B6A9B003A680C
:101BA000134497ED077AD7ED037A77EE677AC3EDA2
:101BB000007A97ED067AD7ED027A77EE677A7A683F
:101BC0003B6A03F606439B001344C3ED007A3B6D6A
:101BD0009B003A68134497ED077AD7ED037A77EEC6
:101BE000277AC3ED007A97ED067AD7ED027A77EE81
:101BF000277A7A683B6D03F606439B001344C3EDD6
:101C0000007A3B6E5B003A6D13443B657DE77B6D6C
:101C100001337B654DE73B6E5B003B6652E67868BF
:101C200000F0F4FC00BF6C37BD4690BD0000000022
:101C3000B0B52DED028BC0B006AFF860B960FA68A0
:101C400042F20403134400227A8507F12A02114666
:101C5000184600F0E8FD0023A7F8E6304FF6FF73C2
:101C6000A7F8E4300023A7F8E230FA6844F238031A
:101C7000134400221A600123A7F8E030B7F8E030DF
:101C8000B3F5A07F00F35E821F23A7F8DE30B7F81C
:101C9000E0309B00BA681344D3ED007AB7F8E03027
:101CA000FA6803F606439B00134493ED007AF0EEC6
:101CB000470AB0EE670AFFF79DF987ED340AB7F9D6
:101CC000E430032B67DCD7ED347A9FED857AF4EEB0
:101CD000C77AF1EE10FA5EDDB7F9E430B3F1FF3FF9
:101CE00006D0B7F8E020B7F9E23001339A4206DDBA
:101CF000B7F9E4309BB201339BB2A7F8E430B7F8F0
:101D0000E030A7F8E230B7F9E410FA6842F21C03B9
:101D10000B445B001344DB88A7F8DE30FA6842F21C
:101D200004031344B7F9E4201146184600F0A0FD5F
:101D300003461B88002B0FD0FA6844F23803134483
:101D40001B6807EE903AB8EE677AD7ED347AB4EEB6
:101D5000E77AF1EE10FA01D5012300E00023002B11
:101D60001CD0FA6842F204031344B7F9E420114688
:101D7000184600F07DFD0246B7F8E0301380D7ED3D
:101D8000347AFCEEE77A17EE901AFA6844F23803D8
:101D90001344196002E00023A7F8E23097ED347A8B
:101DA000DFED506AC7EE267AB7EE007A77EE677AF3
:101DB0009FED4D7A67EE877AC7ED0B7A4B4B3B630D
:101DC00007F1300207F12C031146184600F05FFDC1
:101DD0000346D3ED007AFCEEE77AC7ED017ABB88C3
:101DE000A7F8CE30B7F8E030013B414A82FB03123E
:101DF0005211DB17D31A03F00103002B14BF012388
:101E00000023DBB287F8CD300023C7F8D830D7F8ED
:101E1000D830D72B72DCD7F8D8309BB21A46920054
:101E200013441B0198B2B7F8E0305A1E304B83FBC5
:101E300002135911D317C91A0B469B000B441B01FF
:101E4000D11A8BB20344A7F8C830B7F8CE20D7F820
:101E5000D8309A422FDCB7F9E6309BB201339BB2FF
:101E6000A7F8E630B7F9E63042F21072934212DD7D
:101E7000204B1B889BB201339AB21E4B1A801E4B1B
:101E80001B78DBB21A46FB681A4442F20E03134475
:101E900000221A7025E397F8CD10FA6841F2060384
:101EA0000B4452F82320B7F8C8305B001344B7F84E
:101EB000DE201A800DE097F8CD10FA6841F2060393
:101EC0000B4452F82320B7F8C8305B0013440022BB
:101ED0001A80D7F8D8300133C7F8D83097E700BF59
:101EE000005043470000004900005743000057439B
:101EF0006766666626120120EE110120B7F8E02021
:101F0000D14BA3FB021399090B469B000B441B0109
:101F1000D31A9BB2002B40F00F81B7F8E030F02BC2
:101F200040F3F1800121F86800F01AFB002387F8E4
:101F3000D73097F8D730042B00F3E580FA6842F2E7
:101F40000403134497F8D7201146184600F090FC7C
:101F500003461B88002B0CBF01230023DBB2002BA0
:101F600040F0D080FA6842F20403134497F8D72077
:101F70001146184600F07CFC03461B8807EE903A99
:101F8000B8EE678AFA6842F2040313440021184647
:101F900000F06EFC03461B8807EE903AF8EEE77AF5
:101FA00088EE277A17EE100AFEF700FB03460C4670
:101FB00044EC103B23F094FC54EC103B18462146B3
:101FC000FEF720FE0346A7F8CA3007F16403B7F80E
:101FD000CA209E4918460AF019FB07F14C0307F185
:101FE00064019B4A184600F06BFCFA6842F2040355
:101FF000134497F8D7201146184600F039FC0346E1
:102000001B881946F86800F07BFAF0EE407A07F179
:102010007C030022B0EE670A8C4918460AF0ECF9FE
:1020200007F1340307F17C0207F14C01184600F078
:10203000AEFB07F1100307F13401864A184600F0A1
:102040003FFC07F13403184610F0A4FC07F17C03B1
:10205000184610F09FFC07F14C03184610F09AFC4C
:1020600007F16403184610F095FC97F8D730013358
:102070009BB21A46920013449B009DB297F8CD1074
:10208000FA6841F206030B4452F8234007F11002AC
:1020900007F194031146184610F076FF97F8D71011
:1020A000FA6842F21C030B445B001344DB88C7F858
:1020B000AC300023C7F8B03007F1B003049307F148
:1020C000AC030393644B029307F1940301930094D0
:1020D00050232A460021614802F0AFF907F194032A
:1020E000184610F057FC5E4B5B685E4A136007F1C0
:1020F0001003184610F04EFC97F8D730013387F8DC
:10210000D73016E700BFB7F8E030503B98B2B7F8C9
:10211000E030013B9CB297F8CD10FA6841F206031B
:102120000B4452F823300193D72300932346002217
:1021300001464A4801F03EFEB7F8E0300133A7F807
:10214000E0309BE5FA6842F2020313441B78002B4F
:102150000DD0FA6842F2040313440021184600F03F
:1021600087FB03461B88002B01DD012300E00023D1
:10217000002B00F0B681FA6842F2040313440021F8
:10218000184600F075FB03461B881946F86800F0F6
:10219000B7F9F0EE407A344BC3ED007A324BD3ED11
:1021A000007AB2EE047AC7EE876AB0EE660AFEF7EE
:1021B00035FFF0EE407AC7ED2D7A4FF08243C7F835
:1021C000B83007F1B80207F1B4031146184600F021
:1021D0008EFB0346D3ED007AFCEEE77AC7ED017A79
:1021E000BB88A7F8C630B7F8C640FA6842F20403C5
:1021F00013440021184600F03BFB03461B88E31AFA
:10220000002BB8BF5B42012BCCBF01230023DBB204
:10221000002B2DD0B7F8C630144AD26A02FB03F463
:10222000FA6842F2040313440021184600F020FB30
:1022300003461B88B4FBF3F399B2FA6844F23C03FB
:1022400013440A461A801CE0CDCCCCCC2C73012060
:10225000DCEB0208E0EB02084C12012044120120E2
:10226000A0640240FC11012008120120000400407B
:10227000A14BDB6A99B2FA6844F23C0313440A4664
:102280001A80FA6842F2040313440021184600F051
:10229000EFFA03461B881A466FF0404313449B0035
:1022A000BA6813441B681846FEF780F903460C46CB
:1022B0009FED8F1B44EC103B23F022FC55EC104BA0
:1022C000FA6842F2040313440021184600F0D0FAE1
:1022D00003461B88013BFA6803F606439B00134440
:1022E0001B681846FEF762F902460B469FED801BFD
:1022F00043EC102B23F004FC53EC102B2046294612
:10230000FDF7F6FF03460C4644EC173BB0EE470AD8
:10231000F0EE670A23F06CFD54EC103B18462146A2
:10232000FEF748FC0346C7F8C030FA6842F20403DF
:1023300013440021184600F09BFA03461B88013322
:102340009B00BA6813441B681846FEF72FF9034632
:102350000C469FED671B44EC103B23F0D1FB55EC82
:10236000104BFA6842F2040313440021184600F0AF
:102370007FFA03461B880133FA6803F606439B0085
:1023800013441B681846FEF711F902460B469FEDF1
:10239000581B43EC102B23F0B3FB53EC102B2046BF
:1023A0002946FDF7A5FF03460C4644EC173BB0EE6B
:1023B000470AF0EE670A23F01BFD54EC103B184669
:1023C0002146FEF7F7FB0346C7F8BC30D7F8BC3010
:1023D00007EE903AB8EEE77AD7F8C03007EE903AB9
:1023E000F8EEE76A454BD3ED007A37EEA76AB7F807
:1023F000C63007EE903AF8EEE77A66EE277A76EE88
:10240000A77AB4EEE77AF1EE10FACCBF01230023ED
:10241000DBB2002B0DD0FA6844F23C0313441B8856
:10242000013B99B2FA6844F23C0313440A461A800D
:1024300031E0D7F8C03007EE903AB8EEE77AD7F837
:10244000BC3007EE903AF8EEE76A2C4BD3ED007AF9
:1024500037EEA76AB7F8C63007EE903AF8EEE77A9B
:1024600066EE277A76EEA77AB4EEE77AF1EE10FA06
:10247000CCBF01230023DBB2002B0CD0FA6844F25E
:102480003C0313441B88013399B2FA6844F23C03BD
:1024900013440A461A80FA6844F23C0313441B882A
:1024A000002B14DDFA6844F23C0313441B881A46DF
:1024B00041F26F739A420ADC0F4BDA6AF96844F210
:1024C0003C030B441B889A4201D0012300E0002307
:1024D000002B06D00849FA6844F23C0313441B88D9
:1024E000CB62E837BD46BDEC028BB0BDAFF30080D8
:1024F000000000000000004000040040081201201D
:1025000080B483B000AF78600B467B80124B1B68B1
:1025100007EE903AB8EE677A7B8807EE903AF8EECD
:10252000E77A27EE277A0D4B9B6A01330B4AD26A72
:10253000013202FB03F3DB0207EE903AF8EE677A12
:10254000C7EE276AF0EE667AB0EE670A0C37BD4632
:102550005DF8047B704700BF1000012000040040BC
:1025600080B483B000AF78600B46FB70FB78002B23
:102570000AD0224B1B78DBB21A467B681A4442F21F
:102580000E03134400221A701D4B1B78DBB283F03C
:102590000103DBB2002B15D07A6842F20E0313441C
:1025A0001B7883F00103DBB2002B09D17A6842F279
:1025B0000F0313441B7883F00103DBB2002B01D01F
:1025C000012300E00023002B11D00D4B01221A70D3
:1025D0000C4B00221A807A6842F20E0313441B78D7
:1025E000002B01D0012200E00022074B1A7000BF2F
:1025F0000C37BD465DF8047B704700BFEE1101202B
:10260000E9110120E2110120ED11012080B5ACB0EB
:1026100004AF786001217868FFF772FFF0EE407A2E
:1026200007F150030122B0EE670A4249184609F04B
:10263000E3FE07F1380307F150013F4A184600F066
:102640003FF940F23F117868FFF75AFFF0EE407A09
:1026500007F168030122B0EE670A3649184609F00F
:10266000CBFE07F1200307F1680207F13801184695
:1026700000F08DF807F1080307F120012F4A1846F2
:1026800000F01EF907F12003184610F083F907F156
:102690006803184610F07EF907F13803184610F069
:1026A00079F907F15003184610F074F97A6844F28A
:1026B0002003134407F108021946104600F030F9D0
:1026C0000346002B2DD007F1080207F180031146C5
:1026D000184610F059FC4FF6FF73C7F898300023E6
:1026E000C7F89C3007F1800207F19C03029307F1C1
:1026F00098030193124B00931346DF227321114874
:1027000001F057FE07F18003184610F043F97A688C
:1027100044F22003134407F108021146184610F052
:102720003FF907F10803184610F034F900BFA0374D
:10273000BD4680BD2C730120E4EB0208E8EB0208E3
:102740004C1201204412012080B485B000AFF86023
:10275000B9607A60FA6844F218031344BA681A60E0
:10276000FA6844F21C0313447A681A6000BF1437F5
:10277000BD465DF8047B704780B483B000AF7860DD
:102780007B6818460C37BD465DF8047B704790B5F2
:1027900087B000AFF860B9607A60B86810F030F9BF
:1027A0000446786810F02CF9034623447B61B8682E
:1027B00010F02AF902467B699A4208D2786810F034
:1027C00023F902467B699A4201D3012300E00023EA
:1027D000FB74FB7C002B0AD0BA680021786810F0EB
:1027E000A1FA03461846FFF7C7FF034608E07968D9
:1027F000B86810F0D3FA03461846FFF7BDFF03464A
:102800001946F86810F0ACF8F8681C37BD4690BD62
:1028100080B483B000AF7860052318460C37BD46FE
:102820005DF8047B704790B583B000AF7860396085
:10283000786800F086F804467868FFF7E9FF0346F9
:102840003A681946204600F088F800BF0C37BD46AC
:1028500090BD80B483B000AF786039603B685B00A6
:102860007A68134418460C37BD465DF8047B704700
:1028700080B582B000AF786039607B6839681846EF
:10288000FFF7E7FF034618460837BD4680BD80B412
:1028900083B000AF786039603B6893ED007A7B6865
:1028A000D3ED007AB4EEE77AF1EE10FA01D53B6889
:1028B00000E07B6818460C37BD465DF8047B704726
:1028C00080B584B000AFF860B9607A607968B868A4
:1028D00010F07EFA03461846FFF74EFF03461946EE
:1028E000F86810F03DF8F8681037BD4680BD80B438
:1028F00083B000AF786039607B6893ED007A3B6805
:10290000D3ED007AB4EEE77AF1EE10FA01D53B6828
:1029100000E07B6818460C37BD465DF8047B7047C5
:1029200080B582B000AF786039603968786800F0AF
:1029300028F8034683F00103DBB218460837BD468A
:1029400080BD80B582B000AF7860786800F04EF846
:10295000034618460837BD4680BD80B584B000AF39
:10296000F860B9607A60F86800F04DF803467A685C
:10297000B968184600F052F8034618461037BD46AD
:1029800080BDB0B582B000AF78603960786810F073
:1029900037F80446386810F033F803469C4215D1E6
:1029A000786810F0BCFA0446386810F0B8FA0546AA
:1029B000786810F025F803461A4629462046FEF7A7
:1029C0003DFB0346002B01D1012300E00023184604
:1029D0000837BD46B0BD80B483B000AF78607B6877
:1029E00018460C37BD465DF8047B704780B582B051
:1029F00000AF78607B681846FFF7EDFF0346184686
:102A00000837BD4680BD80B483B000AF78607B6876
:102A100018460C37BD465DF8047B704780B487B01C
:102A200000AFF860B9607A607B681B887B82BB6806
:102A30007B617B69002B09D0FB687A8A1A807B69ED
:102A4000013B7B61FB680233FB60F2E7FB681846E1
:102A50001C37BD465DF8047B7047000080B483B02E
:102A600000AF0346FB71094997F907305B0997F9F5
:102A7000072002F01F02012000FA02F241F8232091
:102A800000BF0C37BD465DF8047B704700E100E0F5
:102A900080B483B000AF03463960FB7197F907300B
:102AA000002B0CDA0E4997F9073003F00F03043BB3
:102AB0003A68D2B21201D2B20B441A7609E009493F
:102AC00097F907303A68D2B21201D2B20B4483F8B8
:102AD000002300BF0C37BD465DF8047B704700BF84
:102AE00000ED00E000E100E080B400AF3F4A3F4B62
:102AF0001B6C43F0805313643D4A3D4B1B6843F409
:102B0000404313603B4A3B4BD3F8883043F4700397
:102B1000C2F88830354A354B1B6843F48033136064
:102B2000324B1B6803F40033002B0CBF012300233E
:102B3000DBB2002B00D0F3E72C4B2F4A5A602B4A14
:102B40002A4B9B689360294A284B9B6843F4A05307
:102B50009360264A254B9B6843F400439360234AC5
:102B6000224B1B6843F080731360204B1B6803F0FB
:102B70000073002B0CBF01230023DBB2002B00D01D
:102B8000F3E71B4A1A4B1B6843F480331360184B5E
:102B90005B6803F48033B3F5803F14BF0123002347
:102BA000DBB2002B00D0F2E7144B40F207321A6080
:102BB0000E4A0E4B9B6823F0030393600B4A0B4BAA
:102BC0009B6843F002039360084B9B6803F00C037F
:102BD000082B14BF01230023DBB2002B00D0F3E746
:102BE00000BFBD465DF8047B704700BF003802405F
:102BF0000070004000ED00E0042D4009003C024060
:102C000080B400AF484A484B1B6B43F00403136386
:102C1000454A454B1B6B43F002031363424A424B48
:102C20001B6C43F400431364404A404B1B6843F061
:102C3000010313603D4A3D4B9B6843F001039360E1
:102C40003B4A3B4B1B6843F001031360384A384B47
:102C50001B6843F400631360354A354B9B6843F4AB
:102C600040639360324A324B1B6A43F4C0031362E1
:102C70002F4A2F4B1B6843F0800313602C4A2C4BC8
:102C80009B6843F0C0039360294A294B1B6A43F4B5
:102C9000C0431362274A274B1B6843F40073136039
:102CA000244A244B1B6843F480731360214A214B50
:102CB0001B6843F0080313601E4A1E4B1B6843F059
:102CC000040313601B4A1B4B1B6843F04003136053
:102CD000154A154B1B6B43F400131363164A164B2E
:102CE0001B6823F0F0531360134A134B1B6843F423
:102CF00000531360104A104B1B6843F400631360C9
:102D00000D4A0D4B1B6843F0400313600A4A0A4BFF
:102D10001B6843F400331360074B084A9A6000BFF6
:102D2000BD465DF8047B7047003802400008024051
:102D300000040240003C0040886002400C3C00401F
:102D400080B400AF7C4A7C4B1B6C43F001031364DE
:102D50004FF080424FF080435B6843F04003536084
:102D60004FF0804313229A624FF080433122DA629F
:102D70004FF0804331225A634FF080424FF080433E
:102D80001B6A43F0010313624FF080424FF080430F
:102D90009B6943F0600393614FF080424FF08043A2
:102DA0001B6843F001031360634A634B1B6B43F0E2
:102DB00001031363604A604B1B6B43F0040313630E
:102DC0005D4A5D4B5B6C43F4807353645B4A5B4BC1
:102DD0001B6843F0C0031360594A594B1B6843F406
:102DE00040631360564A564B1B6843F0030313605D
:102DF000544A544B5B6843F480735360514B4FF417
:102E00000012DA624F4A4F4B5B6B43F00D03536382
:102E10004C4A4C4B5B6B43F0A0035363494A494B0C
:102E20005B6B5363474A474BDB6843F44063D360B3
:102E3000444A444B1B6943F440331361414A414BBC
:102E40001B6943F0060313613E4A3E4B9B6843F403
:102E5000806393603B4A3B4B9B6843F08053936095
:102E6000384A384B9B6843F030639360354A354BA2
:102E70009B6843F480739360324A324B9B6843F4FF
:102E8000007393602C4A2C4B1B6B43F48003136339
:102E90002D4A2D4B1B6823F0C00313602A4A2A4B8E
:102EA0001B6843F400331360274A274B1B6843F425
:102EB00000631360244A244B1B6843F400531360DF
:102EC000214A214B1B6823F4007313601E4A1E4BDA
:102ED0001B6843F4806313601B4A1B4B1B6843F45D
:102EE00080731360184A184B1B6823F0C0031360EB
:102EF000154A154B5B6843F00C035360124B134AA1
:102F00009A60114B124ADA600F4A0F4B1B6823F08C
:102F1000F05313600C4A0C4B1B6843F00103136021
:102F2000084A084B9B6843F00103936000BFBD460D
:102F30005DF8047B704700BF003802400008024083
:102F40000000024000200140706402404C2001401B
:102F50000C12012080B500AF134A134B1B6C43F0D9
:102F600002031364114B32229A62104B8C22DA62F4
:102F70000E4A0E4BDB6843F00103D3601D20FFF7C0
:102F80006DFD00211D20FFF783FD084A074B1B68DC
:102F900043F001031360054A044B5B6943F00103EE
:102FA000536100BF80BD00BF0038024000040040F4
:102FB00080B500AF0D4A0D4B1B6C43F00403136446
:102FC0000B4B0A229A620A4B4FF6FF72DA62084AEA
:102FD000074BDB6843F00103D3601E20FFF73EFD83
:102FE00002211E20FFF754FD00BF80BD00380240C3
:102FF0000008004080B400AF094A094B1B6C43F045
:1030000008031364074B42F210729A62054B4FF6A5
:10301000FF72DA6200BFBD465DF8047B704700BFF7
:1030200000380240000C004080B500AF6D4A6D4B87
:103030001B6B43F0010313636A4A6A4B1B6B43F03B
:1030400004031363674A674B5B6C43F48043536428
:10305000654A654BDB6843F01003D360634A634BFA
:103060009B6843F400739360614A614B9B6843F033
:10307000040393605E4A5E4BDB6843F00403D36055
:103080005B4A5B4B1B6843F004031360564A564B84
:10309000DB6843F48013D360544A544B1B6943F4F8
:1030A00000731361524A524B9B6843F480639360F0
:1030B0004F4A4F4BDB6843F48063D3604C4A4C4B20
:1030C0001B6843F480631360474A474BDB6843F057
:1030D0008073D360454A454B5B6943F002035361FB
:1030E000434A434B9B6843F480539360404A404BB0
:1030F000DB6843F48053D3603D4A3D4B1B6843F487
:10310000805313603B4A3B4BDB6843F48043D360FE
:10311000364A364BDB68D360354A354B9B6843F003
:1031200080039360324A324BDB6843F08003D36004
:103130002F4A2F4B1B6843F0800313602E4A2E4BFF
:10314000DB6843F48033D360284A284B1B6943F083
:1031500001031361264A264B9B6843F480739360F6
:10316000234A234BDB6843F48073D360204A204B0F
:103170001B6843F4807313601F4A1F4BDB6843F4E2
:103180008023D360194A194B1B6943F01003136164
:10319000174A174B9B6843F400739360144A144B0F
:1031A000DB6843F40073D360114A114B1B6843F48E
:1031B0000073136004210820FFF76AFC0820FFF762
:1031C0004DFC04211720FFF763FC1720FFF746FC96
:1031D00004212820FFF75CFC2820FFF73FFC00BFFC
:1031E00080BD00BF003802400008024000380140A6
:1031F000003C0140000002400004024080B582B063
:1032000000AF214A204B1B6C43F4002313641F4A78
:103210001E4B1B6843F4000313601C4A1B4B5B6A84
:1032200043F4004353621A4B1B681A4AA2FB032360
:10323000DB0C7B601849184BDB687A68120113437A
:10324000CB60154A144B1B6823F010231360124AFD
:10325000114B1B6843F0040313600F4A0E4B1B68AD
:1032600043F02003136003213420FFF711FC3420C6
:10327000FFF7F4FB084A084B1B6843F00103136097
:1032800000BF0837BD4680BD00380240000802403C
:103290001000012083DE1B43004C004080B400AFCF
:1032A0000E4A0E4B1B6B43F0010313630B4A0B4B8F
:1032B0001B6C43F000531364094A094B1B6843F02D
:1032C00001031360064A064B1B6843F002031360B8
:1032D00000BFBD465DF8047B704700BF0038024068
:1032E0000074004080B5FCB000AF3B1D1860E74A99
:1032F000E64B9B6943F4803393613B1D44F62061A8
:10330000186800F0B1FBE14AE04B9B6943F0010310
:1033100093613B1D44F62061186800F0A5FB07F19E
:103320000B0301221A7007F10B023B1D11461868AE
:1033300000F0B2FB3B1D4CF25031186800F094FBDA
:1033400007F11803D24A92E8030083E8030007F16B
:103350002003184601F08CF907F1200307F1180249
:1033600007F10C0006CA01F0C4F907F10C023B1D7D
:103370001146186800F040FB07F10C03184601F0F5
:10338000D9F907F12003184601F07EF907F130035F
:10339000C04A92E8030083E8030007F138031846A7
:1033A00001F066F907F1380307F1300207F1240054
:1033B00006CA01F09EF907F124023B1D1146186868
:1033C00000F01AFB07F12403184601F0B3F907F1E6
:1033D0003803184601F058F907F14803AE4A92E85D
:1033E000030083E8030007F15003184601F040F999
:1033F00007F1500307F1480207F13C0006CA01F04B
:1034000078F907F13C023B1D1146186800F0F4FA08
:1034100007F13C03184601F08DF907F150031846F7
:1034200001F032F907F160039C4A92E8030083E857
:10343000030007F16803184601F01AF907F1680361
:1034400007F1600207F1540006CA01F052F907F1D2
:1034500054023B1D1146186800F0CEFA07F15403E0
:10346000184601F067F907F16803184601F00CF9F6
:1034700007F178038A4A92E8030083E8030007F122
:103480008003184601F0F4F807F1800307F1780291
:1034900007F16C0006CA01F02CF907F16C023B1D24
:1034A0001146186800F0A8FA07F16C03184601F0FD
:1034B00041F907F18003184601F0E6F807F190039F
:1034C000784A92E8030083E8030007F1980318465E
:1034D00001F0CEF807F1980307F1900207F184009C
:1034E00006CA01F006F907F184023B1D114618686F
:1034F00000F082FA07F18403184601F01BF907F186
:103500009803184601F0C0F807F1A803664A92E84C
:10351000030083E8030007F1B003184601F0A8F8A0
:1035200007F1B00307F1A80207F19C0006CA01F0F9
:10353000E0F807F19C023B1D1146186800F05CFAA8
:1035400007F19C03184601F0F5F807F1B00318469F
:1035500001F09AF807F1C003544A92E8030083E8A7
:10356000030007F1C803184601F082F807F1C80309
:1035700007F1C00207F1B40006CA01F0BAF807F17A
:10358000B4023B1D1146186800F036FA07F1B40387
:10359000184601F0CFF807F1C803184601F074F897
:1035A00007F1D803424A92E8030083E8030007F1D9
:1035B000E003184601F05CF807F1E00307F1D802D8
:1035C00007F1CC0006CA01F094F807F1CC023B1DCC
:1035D0001146186800F010FA07F1CC03184601F004
:1035E000A9F807F1E003184601F04EF807F1F003DF
:1035F000304A92E8030083E8030007F1F803184615
:1036000001F036F807F1F80307F1F00207F1E400E2
:1036100006CA01F06EF807F1E4023B1D1146186876
:1036200000F0EAF907F1E403184601F083F807F126
:10363000F803184601F028F81F4A07F5847392E84A
:10364000030083E8030007F58873184601F010F8BB
:1036500007F5887307F1FC0007F5847206CA01F0CC
:1036600048F807F1FC023B1D1146186800F0C4F948
:1036700007F1FC03184601F05DF807F5887318465A
:1036800001F002F80D4A07F5907319E000040240BA
:10369000F0EB0208F8EB020800EC020808EC020864
:1036A00010EC020818EC020820EC020828EC0208D2
:1036B00030EC020838EC020840EC020848EC020842
:1036C00092E8030083E8030007F59473184600F0BE
:1036D000CFFF07F5947307F58A7007F5907206CA55
:1036E00001F007F807F58A723B1D1146186800F0D3
:1036F00083F907F58A73184601F01CF807F59473EF
:10370000184600F0C1FFB34A07F59C7392E8030026
:1037100083E8030007F5A073184600F0A9FF07F53A
:10372000A07307F5967007F59C7206CA00F0E1FFDA
:1037300007F596723B1D1146186800F05DF907F514
:103740009673184600F0F6FF07F5A073184600F0D0
:103750009BFFA14A07F5A87392E8030083E80300E2
:1037600007F5AC73184600F083FF07F5AC7307F557
:10377000A27007F5A87206CA00F0BBFF07F5A27297
:103780003B1D1146186800F037F907F5A27318467B
:1037900000F0D0FF07F5AC73184600F075FF8F4AB4
:1037A00007F5B47392E8030083E8030007F5B873E4
:1037B000184600F05DFF07F5B87307F5AE7007F522
:1037C000B47206CA00F095FF07F5AE723B1D1146B4
:1037D000186800F011F907F5AE73184600F0AAFF5B
:1037E00007F5B873184600F04FFF7D4A07F5C07320
:1037F00092E8030083E8030007F5C473184600F05D
:1038000037FF07F5C47307F5BA7007F5C07206CA2B
:1038100000F06FFF07F5BA723B1D1146186800F003
:10382000EBF807F5BA73184600F084FF07F5C47388
:10383000184600F029FF6B4A07F5CC7392E80300A5
:1038400083E8030007F5D073184600F011FF07F571
:10385000D07307F5C67007F5CC7206CA00F049FFB1
:1038600007F5C6723B1D1146186800F0C5F807F54C
:10387000C673184600F05EFF07F5D073184600F0D7
:1038800003FF594A07F5D87392E8030083E8030061
:1038900007F5DC73184600F0EBFE07F5DC7307F55F
:1038A000D27007F5D87206CA00F023FF07F5D2726E
:1038B0003B1D1146186800F09FF807F5D2731846B3
:1038C00000F038FF07F5DC73184600F0DDFE474ACC
:1038D00007F5E47392E8030083E8030007F5E87353
:1038E000184600F0C5FE07F5E87307F5DE7007F52A
:1038F000E47206CA00F0FDFE07F5DE723B1D1146BC
:10390000186800F079F807F5DE73184600F012FF2A
:1039100007F5E873184600F0B7FE354A07F5F0736F
:1039200092E8030083E8030007F5F473184600F0FB
:103930009FFE07F5F47307F5EA7007F5F07206CA03
:1039400000F0D7FE07F5EA723B1D1146186800F03B
:1039500053F807F5EA73184600F0ECFE07F5F47328
:10396000184600F091FE112387F8EB3107F2EB12B5
:103970003B1D1146186800F08FF83B1D1D49186863
:1039800000F072F8292387F8EC3107F5F6723B1D39
:103990001146186800F080F82C2387F8ED3107F203
:1039A000ED123B1D1146186800F076F83B1D022110
:1039B000186800F013F90023A7F8EE3107F5F77245
:1039C0003B1D1146186800F065F900BF07F5F87750
:1039D000BD4680BD50EC020858EC020860EC0208BD
:1039E00068EC020870EC020878EC020880EC02082F
:1039F00088EC020840420F0090B585B000AF7860B7
:103A000039600021386800F0B0FE03461946786836
:103A100000F042F8134A134B9B6943F00103936192
:103A20000123FB73FC7B386800F0AEFE03469C422A
:103A300034BF01230023DBB2002B0ED0FB7B1946E1
:103A4000386800F092FE03461B781946786800F04B
:103A50006BFDFB7B0133FB73E4E700BF1437BD460E
:103A600090BD00BF0008024080B483B000AF786012
:103A700039603B68002B14BF01230023DBB2002B0D
:103A800003D03B68013B3B60F3E700BF0C37BD460A
:103A90005DF8047B7047000080B582B000AF7860AD
:103AA0003960134B5B68002B0BD1124B9B6803F002
:103AB0000303002B05D00F4B9B6803F08003002B02
:103AC00001D0012300E00023002B00D0E9E70A4ADF
:103AD000094B9B6943F4803393613B681B7819461B
:103AE000786800F021FD00BF0837BD4680BD00BFEB
:103AF00088600240003C00400008024080B582B06F
:103B000000AF78603960084A074B9B6943F00103B6
:103B100093613B681B781946786800F005FD00BF8B
:103B20000837BD4680BD00BF0008024080B582B0A6
:103B300000AF786039600C4A0B4B9B6943F001037E
:103B400093613B681B881B12DBB21946786800F052
:103B5000EBFC3B681B88DBB21946786800F0E4FC9C
:103B600000BF0837BD4680BD0008024080B586B062
:103B700000AFF860084611461A4603467B810B46A3
:103B80003B811346FB802A23BB7507F116031946B8
:103B9000F868FFF781FF07F10A031946F868FFF795
:103BA000C5FFBB1D1946F868FFF7C0FF2B23FB7547
:103BB00007F117031946F868FFF76EFF07F10803CE
:103BC0001946F868FFF7B2FF07F12001F868FFF720
:103BD000ADFF00BF1837BD4680BD000080B584B082
:103BE00000AF78600B46FB703623FB7207F10B03C6
:103BF00019467868FFF750FFFB78032B2ED801A2F7
:103C000052F823F0153C0008273C0008393C000816
:103C10004B3C000858233B7307F10C0319467868A6
:103C2000FFF76CFF1AE088237B7307F10D03194639
:103C30007868FFF763FF11E02823BB7307F10E03D9
:103C400019467868FFF75AFF08E0E823FB7307F18D
:103C50000F0319467868FFF751FF00BF7B68FA78B9
:103C60001A70FB78002B02D0FB78012B07D17B6800
:103C7000F0225A807B684FF4A0729A8006E07B683D
:103C80004FF4A0725A807B68F0229A8000BF1037F0
:103C9000BD4680BD80B584B002AF786039607B6876
:103CA0005B88013B99B27B689B88013B9BB23A6879
:103CB000019200930B4600220021786800F004F87E
:103CC00000BF0837BD4680BD80B58AB002AFF8603E
:103CD000084611461A4603467B810B463B81134634
:103CE000FB80FA887B89D31A0133398D3A898A1A85
:103CF000013202FB03F3FB61F8883A8979893B8D35
:103D000000930346F868FFF731FF2C23BB7507F1DA
:103D100016031946F868FFF7BFFE234A224B9B693A
:103D200043F0010393610123FB7507F11703194663
:103D3000F86800F0CFFBFB694FF6FF72934228BF93
:103D400013469BB23B8307F118031A46F96AF868D9
:103D500000F03EFCFB69B3F5803F21D3134B5B6859
:103D6000002B0BD1124B9B6803F00303002B05D0F3
:103D70000F4B9B6803F08003002B01D0012300E070
:103D80000023002B00D0E9E7FB699BB201339BB213
:103D90007B8307F11A031A46F96AF86800F018FCE9
:103DA00000BF2037BD4680BD000802408860024049
:103DB000003C004080B588B002AFF860084611466C
:103DC0001A4603467B810B463B811346FB80FA88EB
:103DD0007B89D31A0133398C3A898A1A013202FB62
:103DE00003F37B61F8883A8979893B8C0093034619
:103DF000F868FFF7BBFE2C23BB7407F112031946CA
:103E0000F868FFF749FE174A164B9B6943F0010318
:103E100093610123FB7407F113031946F86800F05E
:103E200059FB114B4FF44462DA60104A0F4B1B6888
:103E300043F4806313600D4A7B6953600B4A7B6ACD
:103E4000D3600A4A094B1B6843F001031360084A18
:103E5000074B5B6843F00203536000BF1837BD4651
:103E600080BD00BF00080240006002408860024040
:103E7000003C004080B588B002AFF8607B600B4624
:103E80007B8113463B8178893A8979893B89009304
:103E90000346F868FFF76AFE2C23FB7507F117034A
:103EA0001946F868FFF7F8FD7968F868FFF73EFEF5
:103EB00000BF1837BD4680BD90B58BB002AFF8602B
:103EC000084611461A4603467B810B463B81134642
:103ED000FB807B891A46FB685B889A4204DBFB689F
:103EE0005B88013B9BB27B81FB881A46FB685B8841
:103EF0009A4204DBFB685B88013B9BB2FB803B89F9
:103F00001A46FB689B889A4204DBFB689B88013B4E
:103F10009BB23B813B8E1A46FB689B889A4204DB2E
:103F2000FB689B88013B9BB23B867B891A46FB88DA
:103F30009A4206DDBA1D07F10A031146184600F041
:103F40003EFC3B891A463B8E9A4206DD07F1080388
:103F500007F13001184600F032FCFA887B89D31A49
:103F60009BB2BB833A8E3B89D31A9BB27B83B7F952
:103F70001C30002B03D0B7F91A30002B11D17989EE
:103F80003889FC883B8E7A6B126892B2FA8207F10C
:103F900016020192009323460246F868FFF794FE4A
:103FA0004AE0B7F91C20B7F91A309A4207DDB7F991
:103FB0001C30002B00DA01335B101BB207E0B7F9AD
:103FC0001A305B42002B00DA01335B101BB2FB831B
:103FD00079893A897B6B1B689BB23B8307F1180395
:103FE000F868FFF747FF7A89FB889A4203D13A893C
:103FF0003B8E9A421FD0B7F91E20B7F91C305B42A6
:104000009A4208DDFA8B7B8BD31A9BB2FB837B89A8
:1040100001339BB27B81B7F91E20B7F91A309A425F
:10402000D6DAFA8BBB8B13449BB2FB833B890133FB
:104030009BB23B81CCE700BF2437BD4690BD90B515
:1040400089B002AFF860084611461A4603467B81E4
:104050000B463B811346FB807B891A46FB685B88D5
:104060009A4204DBFB685B88013B9BB27B81FB8847
:104070001A46FB685B889A4204DBFB685B88013B5D
:104080009BB2FB803B891A46FB689B889A4204DB03
:10409000FB689B88013B9BB23B813B8D1A46FB68CA
:1040A0009B889A4204DBFB689B88013B9BB23B8563
:1040B0007B891A46FB889A4206DDBA1D07F10A037E
:1040C0001146184600F07BFB3B891A463B8D9A420D
:1040D00006DD07F1080307F12801184600F06FFB21
:1040E00079893889FC883B89FA6A126892B23A82E7
:1040F00007F110020192009323460246F868FFF789
:10410000E3FD798938897C893B8DFA6A126892B21D
:104110007A8207F112020192009323460246F86860
:10412000FFF7D2FD7989388DFC883B8DFA6A1268D9
:1041300092B2BA8207F1140201920093234602461A
:10414000F868FFF7C1FDF9883889FC883B8DFA6A69
:10415000126892B2FA8207F1160201920093234686
:104160000246F868FFF7B0FD00BF1C37BD4690BDA2
:1041700090B589B002AFF860084611461A4603466A
:104180007B810B463B811346FB717B89BA6A1278AF
:104190001344FA685288934207DDBB6A5B789AB28F
:1041A0003B8913443B8100237B8100237B820023D6
:1041B000BB82BB8ABA6A527893424CDABB6A5A68AD
:1041C000FB79203BB96A497801FB03F1BB8A0B44B8
:1041D0005B0013441B883B820023FB82FB8ABA6A84
:1041E0001278934233DA3A8AFB8A02FA03F303F431
:1041F0000043002B12D0FB6893F898361C467A8A4D
:10420000FB6A1B6898B2FB684FF4D07101FB04F1A4
:104210000A440C32014623F8121011E0FB6893F8AF
:1042200098361C467A8A3B6B1B6898B2FB684FF441
:10423000D07101FB04F10A440C32014623F812103C
:104240007B8A01337B82FB8A0133FB82C6E7BB8A10
:104250000133BB82ADE7254B5B68002B0BD1244BB0
:104260009B6803F00303002B05D0214B9B6803F0F0
:104270008003002B01D0012300E00023002B00D09D
:10428000E9E7BB6A1B789AB27B8913449BB2013B76
:104290009CB2BB6A5B789AB23B8913449BB2013BE8
:1042A0009BB2FA6892F8982611464FF4507202FBBE
:1042B00001F21832F9680A44388979890192009329
:1042C00023460246F868FFF775FDFB6893F89836B9
:1042D000012B14BF01230023DBB21A46FB6883F8CD
:1042E000982600BF1C37BD4690BD00BF88600240C5
:1042F000003C004080B487B000AFF860084611462B
:104300001A4603467B810B463B811346FB80002304
:10431000BB82BB8ABA6A5278934244DA3A89BB8A32
:1043200013449BB2FA8812FB03F39AB27B891344BD
:104330007B82BB6A5A6897F82430203BB96A497877
:1043400001FB03F1BB8A0B445B0013441B883B82D7
:104350000023FB82FB8ABA6A127893421FDA3A8AF8
:10436000FB8A02FA03F303F40043002B08D07B8A94
:104370005B003A6A1344FA6A126892B21A8007E044
:104380007B8A5B003A6A13443A6B126892B21A80D5
:104390007B8A01337B82FB8A0133FB82DAE7BB8AAB
:1043A0000133BB82B5E700BF1C37BD465DF8047B17
:1043B000704780B58CB004AFF8607B600B467B81A2
:1043C00013463B817B68FB61F8690EF014FB0346E2
:1043D0007B61F8690EF011FB03463B6107F11002A7
:1043E00007F114031146184600F008FA0346002BA3
:1043F0001FD007F11403184600F028FAB861BB6912
:1044000018783A8979893B6B0293FB6A0193BB6AFE
:1044100000930346F868FFF7ABFEBB6A1B789AB2BD
:104420007B8913447B8107F11403184600F0FEF9E1
:10443000D4E700BF2037BD4680BD90B58FB006AF32
:10444000F860084611461A4603467B810B463B81BD
:104450001346FB807B6BFB61F8690EF0CCFA0346D8
:104460007B61F8690EF0C9FA03463B6107F110025F
:1044700007F114031146184600F0C0F90346002B5B
:1044800024D007F11403184600F0E0F9B861BB69C5
:104490001B78FC88388979893A6C0492FA6B03920C
:1044A000BA6B029201933B6B009323460246F86875
:1044B000FFF720FFBB6B1B789AB27B8913447B818B
:1044C00007F11403184600F0B1F9CFE700BF243715
:1044D000BD4690BD80B483B000AF78603960114AAA
:1044E000104B1B6823F0400313603B681B78012BC3
:1044F00006D10C4A0B4B5B6843F47063536005E0D4
:10450000084A084B5B6823F400635360054A054B77
:104510001B6843F04003136000BF0C37BD465DF8D5
:10452000047B7047003C004080B584B000AF7860E9
:104530000B46FB70234B5B68002B0BD1224B9B6817
:1045400003F00303002B05D01F4B9B6803F080038F
:10455000002B01D0012300E00023002B00D0E9E76D
:10456000194B5B6803F40063002B14BF0123002385
:10457000DBB2002B07D00023FB7207F10B031946B7
:104580007868FFF7A7FF114BFB60FB68FA781A7099
:104590000C4B5B68002B0BD10B4B9B6803F00303A8
:1045A000002B05D0084B9B6803F08003002B01D043
:1045B000012300E00023002B00D0E9E700BF103703
:1045C000BD4680BD88600240003C00400C3C00407D
:1045D00080B485B000AFF860B9607A60214B5B6849
:1045E000002B0BD1204B9B6803F00303002B05D05D
:1045F0001D4B9B6803F08003002B01D0012300E0DA
:104600000023002B00D0E9E7BB681A88FB68DA803A
:10461000164B4FF44062DA60134A134B5B6823F089
:10462000020353600F4A0F4B1B6823F4806313602F
:104630000C4A7B681B8853600A4AFB680633D360C8
:10464000084A084B1B6843F001031360064A064BF7
:104650005B6843F00203536000BF1437BD465DF84A
:10466000047B704788600240003C004000600240CC
:1046700080B582B000AF7860786800F0F3F87B68AE
:1046800018460837BD4680BD80B582B000AF78605F
:10469000786800F0F2F87B6818460837BD4680BDA0
:1046A00080B483B000AF78607B681B6818460C3715
:1046B000BD465DF8047B704780B483B000AF78607E
:1046C0007B685B6818460C37BD465DF8047B704715
:1046D00090B583B000AF78607868FFF7E1FF0446DB
:1046E0007868FFF7E9FF0346234418460C37BD46B8
:1046F00090BDB0B586B000AFF860381D80E8060008
:104700003B60FB683968184600F0CEF83B1D184640
:10471000FFF7C6FF04463B1D1846FFF7D9FF0246C8
:104720002B462146F86800F0E7F8FB681846183772
:10473000BD46B0BDB0B582B000AF78607B681C6884
:104740007B685D687B68184600F004F903461A46EA
:104750002946204600F009F97B68184600F0B3F8B6
:104760007B6818460837BD46B0BD80B483B000AF43
:10477000786039607B681A683B68134418460C37C8
:10478000BD465DF8047B704780B483B000AF7860AD
:104790007B685B681A467B681B68D31A18460C371F
:1047A000BD465DF8047B704780B483B000AF78608D
:1047B0007B6818460C37BD465DF8047B704780B5B2
:1047C00084B000AF786039607868FFF7EDFF03468A
:1047D0001B88FB813868FFF7E7FF03461A887B6870
:1047E0001A8007F10E031846FFF7DEFF03461A880A
:1047F0003B681A8000BF1037BD4680BD90B583B0BE
:1048000000AF78603960786800F0BDF803461C6836
:10481000386800F0B8F803461B689C4214BF0123B7
:104820000023DBB218460C37BD4690BD80B483B080
:1048300000AF78607B681B685A1C7B681A607B68D5
:1048400018460C37BD465DF8047B704780B483B0D2
:1048500000AF78607B681B6818460C37BD465DF872
:10486000047B704780B483B000AF78607B681846E3
:104870000C37BD465DF8047B704780B483B000AF51
:1048800078607B6818460C37BD465DF8047B70473E
:1048900080B582B000AF78607868FFF7F5FE7B687E
:1048A00018460837BD4680BD80B582B000AF78603D
:1048B00039607B683968184600F070F87B681846E4
:1048C0000837BD4680BD80B582B000AF78607B6898
:1048D00019687B689B681A467B681B68D31A1A465E
:1048E000786800F072F87B681846FFF7D1FF7B68A4
:1048F00018460837BD4680BD90B587B000AFF86058
:10490000B9607A603B707968B86800F071F8034666
:104910007B61FB687969184600F07EF80246FB6807
:104920001A60FB681A687B691A44FB689A60FB6826
:104930001C68FB68184600F00DF8034622467968AB
:10494000B86800F07DF80246FB685A6000BF1C376B
:10495000BD4690BD80B483B000AF78607B681846D8
:104960000C37BD465DF8047B704780B584B000AF5E
:10497000F860B9607A60B968F86800F072F800BF52
:104980001037BD4680BD80B483B000AF78607B68CF
:1049900018460C37BD465DF8047B704780B582B081
:1049A00000AF786039603968786800F067F87B6834
:1049B00000221A607B6800225A607B6800229A609D
:1049C0007B6818460837BD4680BD80B584B000AF0F
:1049D000F860B9607A60BB68002B05D0FB687A6824
:1049E000B968184600F058F800BF1037BD4680BDC2
:1049F000B0B584B000AF786039607C683B1D184664
:104A000000F059F82A463968204600F05EF803465F
:104A100018461037BD46B0BD80B582B000AF786093
:104A200039603B68002B06D07B683968184600F077
:104A30005BF8034600E0002318460837BD4680BDFA
:104A400080B584B000AFF860B9607A603B607A6886
:104A5000B968F86800F057F8034618461037BD46A5
:104A600080BD80B582B000AF786039603968786801
:104A700000F05BF800BF0837BD4680BD80B582B04E
:104A800000AF786039603968786800F059F87B6861
:104A900018460837BD4680BD80B584B000AFF860C9
:104AA000B9607A607A68B968F86800F055F800BFB4
:104AB0001037BD4680BD80B483B000AF7860184623
:104AC0000C37BD465DF8047B704780B485B000AFFD
:104AD000F860B9603A71BA68FB68D31A184614379F
:104AE000BD465DF8047B704780B582B000AF78604A
:104AF000396000223968786800F03BF803461846B0
:104B00000837BD4680BD80B586B000AFF860B9609B
:104B10007A600123FB757A68B968F86800F045F897
:104B2000034618461837BD4680BD80B483B000AF39
:104B30007860396000BF0C37BD465DF8047B704774
:104B400080B483B000AF786039607B6818460C375A
:104B5000BD465DF8047B704780B584B000AFF86057
:104B6000B9607A60B86807F073FF00BF1037BD46C0
:104B700080BD80B584B000AFF860B9607A60F86835
:104B800000F023F80246BB689A4234BF0123002399
:104B9000DBB2002B01D015F040FAB86807F05FFFD8
:104BA000034618461037BD4680BD80B584B000AFBF
:104BB000F860B9607A607A68B968F86800F011F84E
:104BC000034618461037BD4680BD80B483B000AFA1
:104BD00078604FF0FF3318460C37BD465DF8047B14
:104BE000704790B585B000AFF860B9607A60F8683A
:104BF00000F00FF80446B86800F00BF803467A6836
:104C00001946204600F010F8034618461437BD46F2
:104C100090BD80B483B000AF78607B6818460C37D5
:104C2000BD465DF8047B7047B0B584B000AFF86056
:104C3000B9607A60F86800F013F80446B86800F0CC
:104C40000FF80546786800F016F803461A4629461C
:104C5000204600F01BF8034618461037BD46B0BD8D
:104C600080B483B000AF78607B6818460C37BD46CF
:104C70005DF8047B704780B483B000AF78607B68D8
:104C800018460C37BD465DF8047B704780B586B08A
:104C900000AFF860B9607A600123FB757A68B96883
:104CA000F86800F005F8034618461837BD4680BD81
:104CB00080B586B000AFF860B9607A60BA68FB680A
:104CC000D31A7B617B69002B05D07B691A46F96892
:104CD000786823F06FFB7B697A68134418461837AD
:104CE000BD4680BD80B483B000AF786039603B685A
:104CF00018460C37BD465DF8047B704780B483B01E
:104D000000AF78607B68B3F5007F05D24FF4007286
:104D10007B68B2FBF3F300E0012318460C37BD4675
:104D20005DF8047B704780B582B000AF78607B6827
:104D3000203318460DF02EFE7B68043318460DF024
:104D400029FE7B6818460837BD4680BD80B483B015
:104D500000AF78607B6800221A707B68F0225A806E
:104D60007B684FF4A0729A807B680C4A083392E803
:104D7000030083E803007B68094A103392E80300CC
:104D800083E803007B68002283F898267B68184636
:104D90000C37BD465DF8047B704700BF90EC0208FD
:104DA00098EC020890B5ADF52F7D00AF3B1D186063
:104DB0003B1D1B6800229A703B1D1B681C1D07F1E0
:104DC000140300221A7007F5CE73184607F060FE30
:104DD00007F5CE7207F114030433DF4918460EF0CD
:104DE00005F907F1140300221A7707F114032033A1
:104DF00018460DF0A5FD07F11403012283F83820B1
:104E000007F5D073184607F043FE07F5D07207F197
:104E100014033C33D14918460EF0E8F807F11403A7
:104E2000012283F8542007F11403583318460DF07B
:104E300087FD07F11403022283F8702007F5D2736F
:104E4000184607F025FE07F5D27207F114037433F4
:104E5000C34918460EF0CAF807F11403042283F878
:104E60008C2007F11403903318460DF069FD07F10B
:104E70001403032283F8A82007F5D473184607F01B
:104E800007FE07F5D47207F11403AC33B549184691
:104E90000EF0ACF807F11403062283F8C42007F1E2
:104EA0001403C83318460DF04BFD07F11403042218
:104EB00083F8E02007F5D673184607F0E9FD07F5FB
:104EC000D67207F11403E433A74918460EF08EF8A2
:104ED00007F11403052283F8FC2007F1140303F5FE
:104EE000807318460DF02CFD07F11403052283F89A
:104EF000182107F5D873184607F0CAFD07F5D872D0
:104F000007F1140303F58E73984918460EF06EF8F6
:104F100007F11403022283F8342107F1140303F587
:104F20009C7318460DF00CFD07F11403052283F85D
:104F3000502107F5DA73184607F0AAFD07F5DA7273
:104F400007F1140303F5AA73894918460EF04EF8C9
:104F500007F11403032283F86C2107F1140303F50E
:104F6000B87318460DF0ECFC07F10C0307F11402BE
:104F70001A6007F10C0307225A6007F5DC73184624
:104F800002F02AF807F5DC7307F10C0206CA204686
:104F900002F067F807F5DC73184602F029F807F10C
:104FA000140404F5C47407F114039C4204D0383C83
:104FB0002046FFF7B8FEF6E707F5DA73184607F064
:104FC00068FD07F5D873184607F063FD07F5D6733B
:104FD000184607F05EFD07F5D473184607F059FD33
:104FE00007F5D273184607F054FD07F5D07318463D
:104FF00007F04FFD07F5CE73184607F04AFD3B1D3D
:105000001B6803F11004002387F8C43107F52973E6
:10501000184607F03DFD07F5297207F5E2730433E2
:105020004D4918460DF0E2FF002387F8E03107F5FF
:10503000E273203318460DF083FC012387F8FC311E
:1050400007F52A73184607F023FD07F52A7207F5BE
:10505000E2733C33414918460DF0C8FF012387F83D
:10506000183207F5E273583318460DF069FC022335
:1050700087F8343207F52B73184607F009FD07F55A
:105080002B7207F5E27374333A4918460DF0AEFF00
:10509000072387F8503207F5E273903318460DF076
:1050A0004FFC032387F86C3207F52C73184607F082
:1050B000EFFC07F52C7207F5E273AC332E49184666
:1050C0000DF094FF082387F8883207F5E273C833A0
:1050D00018460DF035FC07F5E273C7F8BC31042320
:1050E000C7F8C03107F52D73184601F075FF07F5B5
:1050F0002D7307F5DE7206CA204601F0B2FF07F5F0
:105100002D73184601F074FF07F5E274E03407F5DB
:10511000E2739C4204D0383C2046FFF704FEF6E7D9
:1051200007F52C73184607F0B4FC07F52B731846E7
:1051300007F0AFFC07F52A73184607F0AAFC07F53D
:105140002973184607F0A5FC3B1D1B68184607F598
:105150002F77BD4690BD00BFA0EC0208B0EC02085E
:10516000BCEC0208C8EC0208D4EC0208E0EC02082F
:10517000ECEC0208FCEC020808ED020880B582B0F5
:1051800000AF78607B68184601F0B4FF7B68184672
:105190000837BD4680BD0000B0B58CB000AF786068
:1051A0007C6807F10803184601F097FF07F1080330
:1051B0001946204601F0CEFF07F10803184601F01A
:1051C00099FF7B68002283F828207B682C331846DF
:1051D00001F0D3FF7B68074A03F1600415460FCD49
:1051E0000FC495E80F0084E80F007B68184630373D
:1051F000BD46B0BD10ED020880B483B000AF78604A
:105200007B680A221A807B6842F228325A807B68C7
:105210000A4A5A607B6800221A727B6804225A721A
:105220007B680A221A827B6800221A777B681846FC
:105230000C37BD465DF8047B704700BFDA110120D2
:1052400080B586B000AF78607B681B889BB207EEA4
:10525000903AB8EEE77A274BD3ED007A27EE277A1B
:10526000254B1B881BB207EE903AF8EEE77A37EE33
:10527000277ADFED226AC7EE267AB6EE007A37EE9D
:10528000C77A1F4B1B785BB207EE903AF8EEE76ADD
:10529000B2EE006AC6EE267A67EE277AB6EE007A9C
:1052A00077EE877A9FED177A67EE877AC7ED037AF4
:1052B000154B3B6107F1100207F10C03114618462C
:1052C000FDF7E5FA02464FF07E537B6107F11403C8
:1052D00019461046FDF70BFB0346D3ED007AFCEEB2
:1052E000E77AC7ED007A3B889BB218461837BD466F
:1052F00080BD00BF0800012004000120000080469E
:105300000C000120000057430000564380B483B0D6
:1053100000AF0D4B1B881BB2C3F5005307EE903A4C
:10532000F8EEE76A094B93ED007AC6EE877AFCEE59
:10533000E77AC7ED017ABB889BB218460C37BD46A9
:105340005DF8047B704700BF0400012008000120C5
:1053500080B483B000AF0346FB80154B1B6807EE9B
:10536000903AB8EE677AFB8807EE903AF8EEE77A63
:1053700077EEA76A0F4B9B6A013307EE903AF8EE7F
:10538000677A66EEA76A0B4BDB6A013307EE903A49
:10539000F8EE677A66EEA77AC7EE276AF0EE667ACD
:1053A000B0EE670A0C37BD465DF8047B704700BF5E
:1053B000100001200004004090B583B000AF894A7E
:1053C000884B1B6923F001031361874B1B78012B6A
:1053D00004D0854B1B78022B40F0C780834B03F52C
:1053E00000531A88824B1B889BB29A4206D1814B8C
:1053F0001B78DBB2002B01D0012300E00023002B3F
:105400000DD07D4B1B78DBB21A46784B1A4442F222
:105410000E03134401221A70764B00221A70754B4A
:105420001B78DBB2002B00F0AE83704A42F210030F
:1054300013441B78002B2BD16F4B1B78DBB2184623
:105440006B4B1B889BB219466C4B1B889BB21A4650
:105450006A4BDB889BB21344684A928992B2134428
:10546000664A528A92B2134407EE903AB8EEE77A4F
:10547000F1EE006AC7EE267A9FED617A77EE677AE1
:105480005A4A83020B449B001344C3ED007A64E044
:10549000564A42F2100313441B78012B2BD1564B72
:1054A0001B78DBB21846524B1B889BB21946534BF4
:1054B0005B889BB21A46514B1B899BB213444F4ADF
:1054C000D28992B213444D4A928A92B2134407EEA3
:1054D000903AB8EEE77AF1EE006AC7EE267A9FEDD1
:1054E000487A77EE677A414A83020B449B00134463
:1054F000C3ED007A31E03D4A42F2100313441B78B9
:10550000022B2AD13C4B1B78DBB21846384B1B8848
:105510009BB21946394B9B889BB21A46374B5B8925
:105520009BB21344354A128A92B21344334AD28A48
:1055300092B2134407EE903AB8EEE77AF1EE006AC1
:10554000C7EE267A9FED2E7A77EE677A274A830296
:105550000B449B001344C3ED007A254B1B889BB280
:1055600001339AB2224B1A800DE31F4B1B78032B99
:1055700040F062811D4A42F2100313441B78002B55
:1055800014D11E4B1B889AB21C4BDB889BB2134470
:105590009AB21A4B9B899BB213449AB2174B5B8AFF
:1055A0009BB213449AB2174B1A8041E00F4A42F261
:1055B000100313441B78012B26D1104B5B889AB241
:1055C0000E4B1B899BB213449AB20C4BDB899BB2E6
:1055D00013449AB2094B9B8A9BB213449AB2094B6B
:1055E0001A8025E00004004040120120E01801204C
:1055F000E2110120E9110120ED1101200C1201201E
:1056000000E0FF44DA1101207E4B9B889AB27D4B6B
:105610005B899BB213449AB27A4B1B8A9BB21344A8
:105620009AB2784BDB8A9BB213449AB2764B1A80BB
:10563000764B1B78DBB283F00103DBB2002B23D067
:10564000734B1B889BB21A46724B1B889BB29A42C3
:105650001ADA6D4B1B889BB21A466E4B1B889BB2A5
:105660009A4211DB6C4B1B78DBB283F00103DBB297
:10567000002B07D1684B5B78DBB283F00103DBB210
:10568000002B01D0012300E00023002B17D05F4B3B
:1056900001221A70604B1B78DBB2002B01D0012273
:1056A00000E000225D4B1A705D4B00221A805B4BBC
:1056B0001B78DBB21A465B4B002123F81210534BC8
:1056C0001B78DBB2002B00F09680544B1B78DBB2CA
:1056D0001946534B1B889BB21C464B4B1B8898B2F8
:1056E000514A0B469B000B449B012344014622F880
:1056F00013104B4B1B889BB20A2B13DD444B1B88AA
:105700009BB21A46434B1B889BB29A420ADA3E4B25
:105710001B889BB21A463F4B1B889BB29A4201DB07
:10572000012300E00023002B49D03C4B1B78DBB267
:105730001A463B4B1B8899B23A4B23F81210374B51
:105740001B78DBB21A46344B01219954334B1B783A
:10575000DBB21C46324B1B889BB21846FFF7F8FDA4
:10576000F0EE407A314AA3001344C3ED007A274B90
:1057700000221A702A4B1B889BB21A4640F217135C
:105780009A42D4BF01230023DBB2002B33D0244B39
:105790001B889BB21A46264BDB6A013303FB02F3DC
:1057A000DB08244AA2FB03235B08FB80B7F9063021
:1057B000002B20DD1E4AB7F90630D3621BE0184BE0
:1057C0001B889BB240F23F1293420CBF012300237F
:1057D000DBB2002B08D00D4B00221A70144A144B78
:1057E000DB6A1E33D36206E00D4B1B889BB201338C
:1057F0009AB20B4B1A80044B1B889AB2044B1A8046
:10580000C1E100BF0C120120DA110120E9110120D1
:10581000E01101200E00012034120120ED110120C1
:10582000E211012028120120D402012038120120A7
:10583000000400400FEAA00E864B1B78002B40F0BE
:10584000A281854B1B889AB2834BDB889BB21344A1
:105850009AB2814B9B899BB213449AB27E4B5B8A6E
:105860009BB213449AB27D4B1A807B4B5B889AB2F1
:10587000794B1B899BB213449AB2774BDB899BB25D
:1058800013449AB2744B9B8A9BB213449AB2744BE2
:105890001A80714B9B889AB26F4B5B899BB2134401
:1058A0009AB26D4B1B8A9BB213449AB26A4BDB8A45
:1058B0009BB213449AB26B4B1A806B4B1B78DBB2D2
:1058C00083F00103DBB2002B2ED0684B1B78DBB2D8
:1058D00083F00103DBB2002B07D1654B1B78DAB2F2
:1058E000644B1B78DBB29A421ED0634B5B68002B83
:1058F00018D0624B1B889BB21A465F4B1B889A429A
:1059000012DD5F4B1B889BB21A465B4B5B889A4249
:105910000ADA594B5B681B889BB21A46564B5B8868
:105920009A4201DB012300E00023002B53D04E4BB1
:1059300001221A70504B5B68002B14D1514B00228E
:105940001A804B4B1B78DBB21A464F4B002123F8D1
:105950001210474B1B78DBB21A464C4B4FF6FF71C7
:1059600023F8121037E0424B1B78DBB21946454B47
:105970001B889AB2404B1B88D31A9BB21AB2424B77
:1059800023F811203A4B1B78DBB21A463E4B33F812
:1059900012301BB29BB2DB0BDBB2002B10D0344BAE
:1059A0001B78DBB21A461946374B33F811301BB25D
:1059B0009BB203F5A0739BB219B2334B23F81210BC
:1059C0002B4B1B78DBB21A462B4B1B88013B99B241
:1059D0002E4B23F81210244B1B78DBB2002B0DD07A
:1059E000234B1B78DBB21A46284B33F812309BB29C
:1059F00040F23F12934201D1012300E00023002B2B
:105A000010D01B4B1B78DBB2012B14BF01230023EA
:105A1000DBB21A46164B1A70184B00221A80124B32
:105A200000221A70104B1B78DBB2002B0FD10F4BEA
:105A30001B78DBB283F00103DBB2002B07D10C4BE8
:105A40001B78DAB20B4B1B78DBB29A4220D00123D1
:105A50001FE000BF401201200C120120DA110120CA
:105A6000DC110120DE110120E9110120EA110120E1
:105A7000ED110120EE110120C8730120E611012073
:105A8000E0110120E2110120F4110120F8110120A0
:105A90000023002B77D03E4B3E4A128892B29A6088
:105AA0003D4B1B78DBB219463C4B1B889BB21C4616
:105AB0003B4B1B8898B23B4A0B469B000B449B0117
:105AC0002344014622F81310334B1B78DBB21946EE
:105AD000324B1B889BB21C46334B1B8898B2334A0F
